:020000040800F2
:10000000000C0020810D0008B5040008B7040008AA
:1000100000000000000000000000000000000000E0
:10002000000000000000000000000000B90400080B
:100030000000000000000000BB040008BD04000830
:10004000000000000000000000000000D10D0008CA
:10005000D10D0008D10D0008D10D0008D10D000808
:100060000000000000000000000000000000000090
:10007000D10D0008DD040008D10D000800000000CB
:1000800000000000D10D000800000000000000008A
:1000900000000000F904000800000000D10D000875
:1000A00000000000D10D0008000000001505000848
:1000B0000000000000000000000000000000000040
:1000C00002B4714649084900095C49008E4402BCEB
:1000D0007047C046002243088B4274D303098B4209
:1000E0005FD3030A8B4244D3030B8B4228D3030C08
:1000F0008B420DD3FF22090212BA030C8B4202D3AA
:100100001212090265D0030B8B4219D300E0090AD1
:10011000C30B8B4201D3CB03C01A5241830B8B42DA
:1001200001D38B03C01A5241430B8B4201D34B03C3
:10013000C01A5241030B8B4201D30B03C01A524128
:10014000C30A8B4201D3CB02C01A5241830A8B42AD
:1001500001D38B02C01A5241430A8B4201D34B0296
:10016000C01A5241030A8B4201D30B02C01A5241FA
:10017000CDD2C3098B4201D3CB01C01A52418309AE
:100180008B4201D38B01C01A524143098B4201D3E8
:100190004B01C01A524103098B4201D30B01C01A13
:1001A0005241C3088B4201D3CB00C01A524183088D
:1001B0008B4201D38B00C01A524143088B4201D3BA
:1001C0004B00C01A5241411A00D20146524110461A
:1001D0007047FFE701B5002000F006F802BDC046F9
:1001E0000029F7D076E770477047C04610B5064C37
:1001F0002378002B07D1054B002B02D0044800E0E8
:1002000000BF0123237010BDC800002000000000C3
:10021000E40D0008044B10B5002B03D0034904483B
:1002200000E000BF10BDC04600000000CC00002070
:10023000E40D000803008218934200D17047197042
:100240000133F9E770B500260C4C0D4D641BA4106A
:10025000A64209D1002600F0C5FD0A4C0A4D641BD8
:10026000A410A64205D170BDB300EB5898470136E3
:10027000EEE7B300EB5898470136F2E7840F000829
:10028000840F0008880F0008840F00088023F7B54A
:100290000600194C01915B02226915001D401A42AB
:1002A000FAD1EFF3108772B600F078FC01238021B9
:1002B0006269090313436361019B9A1B93590135DA
:1002C000EDB208C61F2D03D163690B436361F5E7E7
:1002D000202DF3D180235B0222691A42FCD1012236
:1002E00063699343636123699343236100F068FC6E
:1002F00087F31088F7BDC046002002400023144A4F
:100300001448154970B51468144A03600B609C4288
:1003100004D09D182D78002D15D0036002680F4D74
:1003200013009C4204D95E193678FF2E0DD10B6064
:100330000B4CD3092370DBB2DB01D21A02600A68CE
:10034000D31A0B6070BD0133E1E70133E9E7C04622
:1003500000100000EC000020E80000200040000831
:10036000E40000200B4B70B51C680B4B1A68A41AF4
:10037000E4B2EFF3108572B6084A1B6811782200C8
:10038000C901C918064BC91800F023FD85F3108870
:10039000200070BDE8000020EC000020E4000020F8
:1003A0000040000810B5EFF3108472B6044BC90189
:1003B0008022C91800F00DFD84F3108810BDC046DE
:1003C00000400008F0B5A3B06B46802500902A00DD
:1003D000D97102A80021DC1DFFF72CFF2F4E2378D6
:1003E0003268D1B26D1AAB4231DD2D4D2D4F2878D8
:1003F00002A9C001C019FFF749FF2B780133DBB216
:100400002B701F2B22D9EFF3108572B600F0C6FBBC
:100410008022254B120159690A435A610122524236
:100420003A608022520219690F0017401142FAD136
:100430005A691E490A4001215A611A698A431A61A0
:1004400000F0BEFB85F31088154B1F700022184B7F
:10045000FF251A60237811009B1880203360002349
:100460002940401A834209DB0D4B02A918780D4B35
:10047000C001C018FFF70AFF23B0F0BD2778D118DC
:1004800002AE761829009F4203D90099C91809784D
:10049000C9B201333170DBB2E4E7C046E8000020A6
:1004A000E40000200040000800200240FFF7FFFFAA
:1004B000EC0000207047FEE770477047704700006F
:1004C000054B82B01A6C02431A641B6C18400190F1
:1004D000019B02B07047C046001002400122044B4D
:1004E0001969114203D003490A70033A1A6170472F
:1004F000002C0140F40000200122044B1969114234
:1005000003D003490A70033A1A617047004401405E
:10051000C1000020054A13689B0606D50121044B43
:1005200019705368034ADBB21370704700380140FA
:10053000F3000020C000002030B541254024074BC7
:1005400041186D42884200D130BD0278D2B25A6063
:100550001A682242FCD01D600130F3E700380140E8
:1005600030B50F4CA1B02000FFF7FCFE0D4B010091
:10057000186000232020994204D86846FFF7DCFF6A
:1005800021B030BDE25C1500303D2A2D02D80A3D75
:10059000062D00D802006D46EA540133EBE7C04651
:1005A00000010020FC0000208023F0B5DE4E5B003F
:1005B0003268B5B013433360DC4B72681B68120CB1
:1005C000DB041204DB0C134380229201134373609B
:1005D00000F084FB8023DB0032681A42FCD0B36851
:1005E000D34A13400722B360B3689343B360382300
:1005F000B26814001C401A42FAD1CE4AB368CE4801
:100600001340B36000F0C4FACB4800F0B1FA802088
:100610000001FFF755FF802001258002FFF750FF02
:100620008020736BC0012B437363736B03AE2B404D
:100630000293029BFFF744FF2100182208A8FFF74E
:10064000F9FD210018220EA8FFF7F4FD2100182261
:1006500014A8FFF7EFFD02AB12222100981DFFF74F
:10066000E9FDB64B3100B6483380059300F0B4FA8B
:10067000B34AB44F13683100AB43136002235B42AB
:100680001361B14B38003380B04B3474059306943A
:10069000049400F0A1FA3B68A020AB433B60022326
:1006A00002265B423B6108A9C00508960A96099597
:1006B0000B940C9400F0B8FAA021A54BC9058E62EA
:1006C00018689621192309025843FFF703FD642196
:1006D0000600FFF785FD080132306421FFF7FAFCC0
:1006E000642101903000FFF7F5FC019900010E181C
:1006F000B3B2984E984AB360F36880211340F36018
:100700003369964A890113403361F368944A08209B
:100710001340F3607369934A13400C227361F368CA
:100720001343F360F3680B43F36041235B42336090
:1007300080231390DB00A0200E9302230EA9C00596
:100740000F931093129400F06FFA08200223149074
:10075000A0201593169314AB1900C0051894199591
:1007600000F062FA764AD3682B43D36080217E4B37
:1007700089011960FA681543FD60802292031A60AE
:100780002021F2680A43F260802212051A60FFF706
:10079000B5FD39217548FFF7CFFE4D217448FFF7AD
:1007A000CBFE744B01931B78DDB2012B1ED10024CC
:1007B0002022019B02211C70F3686F489343F36071
:1007C000FFF7BAFEFFF7CCFE04226C4914A800F034
:1007D00000FB042114A8FFF7AFFE594A54621368C6
:1007E0002B4313607C623B68AB433B60644B1A78DD
:1007F000D5B2012A14D100221A703B68614CAB4378
:100800003B6023780D2B42D15F4B60481968C9B219
:10081000FFF7D8FD019B1D7001212000FFF78CFE22
:100820005B4B1978CAB20129BBD100211970564B14
:10083000584D01931B68296801338B4200D020E199
:100840003F490B6893430B602024202233681C40EF
:10085000134200D013E1F36802211343F360012334
:100860007C623A684C4813433B60A023DB059962E5
:10087000FFF762FE3F22494B2C601C70484B1C70F6
:10088000484B1C703F4B1A70019B1C6089E7237812
:100890007F2B14D13C493D480B682270C254002B79
:1008A000BAD0013B0B6002223F4914A800F091FA34
:1008B000022114A8FFF740FE08232370ACE7237839
:1008C000602B0ED923787A2B0BD82378203BDBB210
:1008D00023702D4A207813682C49C85401331360C3
:1008E0009AE72378402B02D923785A2BF1D9237821
:1008F0002F2B02D92378392BEBD92378402B08D121
:10090000BFF34F8F294B2A4ADA60BFF34F8FC0469F
:10091000FDE723783A2B4FD103212648FFF70CFE41
:10092000FFF71EFE0023C8E700100240040FFF1F60
:10093000FFF0FFFFFF8FFFFF00127A001F03000090
:10094000002C0140004401403F1F000087130000BD
:10095000C400002000380140FFEFFFFFFFDFFFFF72
:10096000FFF9FFFFFFFCFFFF00E100E0050E0008BC
:100970003F0E0008C10000208D0E0008FC0D00088D
:10098000F3000020C0000020FC0000200001002037
:10099000F4000020F8000020F60E0008F20000200D
:1009A000F0000020F1000020000E000800ED00E043
:1009B0000400FA058F0E000823783F2B14D1142170
:1009C0005D48FFF7B9FD14215C48FFF7B5FD142120
:1009D0005B48FFF7B1FD12215A48FFF7ADFD10212A
:1009E0005948FFF7A9FD9DE723783D2B3DD12022F3
:1009F000F36802219343F360544B002518000193E0
:100A0000FFF79AFD290014A8FFF7CCFC002114ABD6
:100A10001A78002A1CD12E321A700131C9B2013362
:100A20008029F5D114A80135FFF786FDEDB202212A
:100A30000198FFF781FD202DE4D1454B4548196809
:100A4000FFF77AFD00232370F3681D43F560E3E6AA
:100A5000FF2A01D1833ADFE7100030382A2802D874
:100A60003A3A062AD9D82022D6E720233F2038490F
:100A7000384A23700B68D05401330B60CCE673689E
:100A8000E2E6354C2078042800D98AE6A022022329
:100A9000D205FFF715FB0317452A350093622D4B4E
:100AA0005A5C2E4B0131D25C2D4B29601A70072203
:100AB0001B7813402B4A13702FD104222A4B22702B
:100AC0001A706EE69362264A13785BB2002B00DA46
:100AD0000320254B187013785B00DBB21370214A9A
:100AE0001378013B1370032318E093611E4A1378B7
:100AF000013BDBB2002B01D0137052E604230DE062
:100B0000194993620A78013AD2B20A70002A00D0D9
:100B100047E6144A1278002A00D00123237040E6E9
:100B200093621249032214A800F053F9032114A878
:100B3000FFF702FD0023F1E7930E0008A80E00085E
:100B4000BD0E0008D20E0008E50E0008A50E000834
:100B5000FC00002000010020F2000020C90E000867
:100B6000C0000020F1000020F0000020020E00086C
:100B7000FA2110B58900FFF7ADFA0022034B0138C6
:100B800058609A6005321A6010BDC04610E000E05F
:100B9000014B18607047C046C40000200020054B80
:100BA0005A69824205DA044A9A60044A9A6058698E
:100BB000C00F70470020024023016745AB89EFCD8D
:100BC0008022044B120659690A435A615869C0438E
:100BD000C00F70470020024030B5104D03680A88EE
:100BE0008C68A8420DD17025AB434D682B430C4D4A
:100BF0002B40CD682B430360C46282620B7C03638D
:100C000005E0084DA842F2D00360C462826201236D
:100C1000426913434361002030BDC046002C0140AF
:100C2000FFFCFFFF00440140F7B500254B680A6850
:100C30000093013B01931300EB400AD1019B012B70
:100C400005D84368C96893434A431343436000206F
:100C5000FEBD01241300AC402340224217D01A00ED
:100C600003265A435643B44667460468F643BC43DA
:100C7000009F57433C4304600C695443A446019CC5
:100C8000012C06D96246C36833401343C360013563
:100C9000CCE78C688768544337403C438460C46821
:100CA000344066463443C460009C022CEFD14C694A
:100CB000FF2B08D80F26524356436243036AB343BF
:100CC0001A430262E3E70F261B0A5B435B435E4362
:100CD0005C43426AB24322434262D8E73822114958
:100CE00010B58B681340082B16D0182B16D007248C
:100CF0004B680D485B0B0A6823409B001B58D20AC7
:100D00002240D3408A6809491205120F92005258B6
:100D10000748D340036010BD064BF3E780231B0256
:100D2000F0E7C04600100240240F0008440F0008FE
:100D3000C400002000366E010C490D4A4B68126851
:100D40001B0C1B04134380229201134310B54B600C
:100D50000023084C08499A00105901335050302B99
:100D6000F9D18022054B92059A6010BD0010024017
:100D7000040FFF1F000000080000002000ED00E04D
:100D80000D4885460D480E490E4A002302E0D4580E
:100D9000C4500433C4188C42F9D30B4A0B4C0023C3
:100DA00001E013600432A242FBD3FFF7C5FFFFF757
:100DB00049FAFFF7F9FBFEE7000C0020C000002015
:100DC000C80000208C0F0008C8000020800100200F
:100DD000FEE7002310B59A4200D110BDCC5CC4548C
:100DE0000133F8E7F8B5C046F8BC08BC9E4670472A
:0C0DF000F8B5C046F8BC08BC9E46704731
:100DFC000D1B5B4308201B5B435479706520616EAF
:100E0C00797468696E6720746F20736574206265ED
:100E1C0061636F6E206D6573736167652E20547905
:100E2C00706520273F2720666F722068656C702ED6
:100E3C000D0A00273E272073796D626F6C20696E56
:100E4C0064696361746573206F6E676F696E672088
:100E5C007472616E736D697373696F6E2E20447555
:100E6C0072696E6720746861742C20747970696E75
:100E7C00672069732064697361626C65642E0D0A66
:100E8C00003E000D0A3A002A2A2A2A2A2A2048451E
:100E9C004C50202A2A2A2A2A2A0D0A003F202D20CB
:100EAC0053686F7720746869732068656C700D0ADD
:100EBC00003A202D204D6F64696679206D6573733F
:100ECC006167650D0A0040202D2053797374656DA0
:100EDC002072657365740D0A003D202D2044756DDC
:100EEC007020666C6173680D0A000A0D00FD7D3D73
:100EFC001D0D0585C5E5F5000000000000004284CD
:100F0C00A4830124C3040274A344C282E364D443C3
:100F1C00038123146394B4C400093D0000127A00C9
:100F2C000024F4004086510100366E0100093D009A
:100F3C0000093D0000093D00000000000000000019
:100F4C000000000000000000000000000000000095
:100F5C000000000000000000010000000200000082
:100F6C000300000004000000060000000700000061
:080F7C0008000000090000005C
:040F8400150200084A
:040F8800ED0100086F
:080F8C003F01000000127A0091
:0400000508000D8161
:00000001FF
